{
  "contractName": "PREToken",
  "abi": [
    {
      "anonymous": false,
      "inputs": [
        {
          "indexed": true,
          "internalType": "address",
          "name": "owner",
          "type": "address"
        },
        {
          "indexed": true,
          "internalType": "address",
          "name": "spender",
          "type": "address"
        },
        {
          "indexed": false,
          "internalType": "uint256",
          "name": "value",
          "type": "uint256"
        }
      ],
      "name": "Approval",
      "type": "event"
    },
    {
      "anonymous": false,
      "inputs": [
        {
          "indexed": false,
          "internalType": "address",
          "name": "account",
          "type": "address"
        }
      ],
      "name": "Paused",
      "type": "event"
    },
    {
      "anonymous": false,
      "inputs": [
        {
          "indexed": true,
          "internalType": "bytes32",
          "name": "role",
          "type": "bytes32"
        },
        {
          "indexed": true,
          "internalType": "address",
          "name": "account",
          "type": "address"
        },
        {
          "indexed": true,
          "internalType": "address",
          "name": "sender",
          "type": "address"
        }
      ],
      "name": "RoleGranted",
      "type": "event"
    },
    {
      "anonymous": false,
      "inputs": [
        {
          "indexed": true,
          "internalType": "bytes32",
          "name": "role",
          "type": "bytes32"
        },
        {
          "indexed": true,
          "internalType": "address",
          "name": "account",
          "type": "address"
        },
        {
          "indexed": true,
          "internalType": "address",
          "name": "sender",
          "type": "address"
        }
      ],
      "name": "RoleRevoked",
      "type": "event"
    },
    {
      "anonymous": false,
      "inputs": [
        {
          "indexed": true,
          "internalType": "address",
          "name": "from",
          "type": "address"
        },
        {
          "indexed": true,
          "internalType": "address",
          "name": "to",
          "type": "address"
        },
        {
          "indexed": false,
          "internalType": "uint256",
          "name": "value",
          "type": "uint256"
        }
      ],
      "name": "Transfer",
      "type": "event"
    },
    {
      "anonymous": false,
      "inputs": [
        {
          "indexed": false,
          "internalType": "address",
          "name": "account",
          "type": "address"
        }
      ],
      "name": "Unpaused",
      "type": "event"
    },
    {
      "inputs": [],
      "name": "DEFAULT_ADMIN_ROLE",
      "outputs": [
        {
          "internalType": "bytes32",
          "name": "",
          "type": "bytes32"
        }
      ],
      "stateMutability": "view",
      "type": "function",
      "constant": true
    },
    {
      "inputs": [],
      "name": "PAUSER_ROLE",
      "outputs": [
        {
          "internalType": "bytes32",
          "name": "",
          "type": "bytes32"
        }
      ],
      "stateMutability": "view",
      "type": "function",
      "constant": true
    },
    {
      "inputs": [
        {
          "internalType": "address",
          "name": "owner",
          "type": "address"
        },
        {
          "internalType": "address",
          "name": "spender",
          "type": "address"
        }
      ],
      "name": "allowance",
      "outputs": [
        {
          "internalType": "uint256",
          "name": "",
          "type": "uint256"
        }
      ],
      "stateMutability": "view",
      "type": "function",
      "constant": true
    },
    {
      "inputs": [
        {
          "internalType": "address",
          "name": "spender",
          "type": "address"
        },
        {
          "internalType": "uint256",
          "name": "amount",
          "type": "uint256"
        }
      ],
      "name": "approve",
      "outputs": [
        {
          "internalType": "bool",
          "name": "",
          "type": "bool"
        }
      ],
      "stateMutability": "nonpayable",
      "type": "function"
    },
    {
      "inputs": [
        {
          "internalType": "address",
          "name": "account",
          "type": "address"
        }
      ],
      "name": "balanceOf",
      "outputs": [
        {
          "internalType": "uint256",
          "name": "",
          "type": "uint256"
        }
      ],
      "stateMutability": "view",
      "type": "function",
      "constant": true
    },
    {
      "inputs": [],
      "name": "decimals",
      "outputs": [
        {
          "internalType": "uint8",
          "name": "",
          "type": "uint8"
        }
      ],
      "stateMutability": "view",
      "type": "function",
      "constant": true
    },
    {
      "inputs": [
        {
          "internalType": "address",
          "name": "spender",
          "type": "address"
        },
        {
          "internalType": "uint256",
          "name": "subtractedValue",
          "type": "uint256"
        }
      ],
      "name": "decreaseAllowance",
      "outputs": [
        {
          "internalType": "bool",
          "name": "",
          "type": "bool"
        }
      ],
      "stateMutability": "nonpayable",
      "type": "function"
    },
    {
      "inputs": [
        {
          "internalType": "bytes32",
          "name": "role",
          "type": "bytes32"
        }
      ],
      "name": "getRoleAdmin",
      "outputs": [
        {
          "internalType": "bytes32",
          "name": "",
          "type": "bytes32"
        }
      ],
      "stateMutability": "view",
      "type": "function",
      "constant": true
    },
    {
      "inputs": [
        {
          "internalType": "bytes32",
          "name": "role",
          "type": "bytes32"
        },
        {
          "internalType": "uint256",
          "name": "index",
          "type": "uint256"
        }
      ],
      "name": "getRoleMember",
      "outputs": [
        {
          "internalType": "address",
          "name": "",
          "type": "address"
        }
      ],
      "stateMutability": "view",
      "type": "function",
      "constant": true
    },
    {
      "inputs": [
        {
          "internalType": "bytes32",
          "name": "role",
          "type": "bytes32"
        }
      ],
      "name": "getRoleMemberCount",
      "outputs": [
        {
          "internalType": "uint256",
          "name": "",
          "type": "uint256"
        }
      ],
      "stateMutability": "view",
      "type": "function",
      "constant": true
    },
    {
      "inputs": [
        {
          "internalType": "bytes32",
          "name": "role",
          "type": "bytes32"
        },
        {
          "internalType": "address",
          "name": "account",
          "type": "address"
        }
      ],
      "name": "grantRole",
      "outputs": [],
      "stateMutability": "nonpayable",
      "type": "function"
    },
    {
      "inputs": [
        {
          "internalType": "bytes32",
          "name": "role",
          "type": "bytes32"
        },
        {
          "internalType": "address",
          "name": "account",
          "type": "address"
        }
      ],
      "name": "hasRole",
      "outputs": [
        {
          "internalType": "bool",
          "name": "",
          "type": "bool"
        }
      ],
      "stateMutability": "view",
      "type": "function",
      "constant": true
    },
    {
      "inputs": [
        {
          "internalType": "address",
          "name": "spender",
          "type": "address"
        },
        {
          "internalType": "uint256",
          "name": "addedValue",
          "type": "uint256"
        }
      ],
      "name": "increaseAllowance",
      "outputs": [
        {
          "internalType": "bool",
          "name": "",
          "type": "bool"
        }
      ],
      "stateMutability": "nonpayable",
      "type": "function"
    },
    {
      "inputs": [],
      "name": "name",
      "outputs": [
        {
          "internalType": "string",
          "name": "",
          "type": "string"
        }
      ],
      "stateMutability": "view",
      "type": "function",
      "constant": true
    },
    {
      "inputs": [],
      "name": "pause",
      "outputs": [],
      "stateMutability": "nonpayable",
      "type": "function"
    },
    {
      "inputs": [],
      "name": "paused",
      "outputs": [
        {
          "internalType": "bool",
          "name": "",
          "type": "bool"
        }
      ],
      "stateMutability": "view",
      "type": "function",
      "constant": true
    },
    {
      "inputs": [
        {
          "internalType": "bytes32",
          "name": "role",
          "type": "bytes32"
        },
        {
          "internalType": "address",
          "name": "account",
          "type": "address"
        }
      ],
      "name": "renounceRole",
      "outputs": [],
      "stateMutability": "nonpayable",
      "type": "function"
    },
    {
      "inputs": [
        {
          "internalType": "bytes32",
          "name": "role",
          "type": "bytes32"
        },
        {
          "internalType": "address",
          "name": "account",
          "type": "address"
        }
      ],
      "name": "revokeRole",
      "outputs": [],
      "stateMutability": "nonpayable",
      "type": "function"
    },
    {
      "inputs": [],
      "name": "symbol",
      "outputs": [
        {
          "internalType": "string",
          "name": "",
          "type": "string"
        }
      ],
      "stateMutability": "view",
      "type": "function",
      "constant": true
    },
    {
      "inputs": [],
      "name": "totalSupply",
      "outputs": [
        {
          "internalType": "uint256",
          "name": "",
          "type": "uint256"
        }
      ],
      "stateMutability": "view",
      "type": "function",
      "constant": true
    },
    {
      "inputs": [
        {
          "internalType": "address",
          "name": "recipient",
          "type": "address"
        },
        {
          "internalType": "uint256",
          "name": "amount",
          "type": "uint256"
        }
      ],
      "name": "transfer",
      "outputs": [
        {
          "internalType": "bool",
          "name": "",
          "type": "bool"
        }
      ],
      "stateMutability": "nonpayable",
      "type": "function"
    },
    {
      "inputs": [
        {
          "internalType": "address[]",
          "name": "recipients",
          "type": "address[]"
        },
        {
          "internalType": "uint256[]",
          "name": "amounts",
          "type": "uint256[]"
        }
      ],
      "name": "transferBatch",
      "outputs": [
        {
          "internalType": "bool",
          "name": "",
          "type": "bool"
        }
      ],
      "stateMutability": "nonpayable",
      "type": "function"
    },
    {
      "inputs": [
        {
          "internalType": "address",
          "name": "sender",
          "type": "address"
        },
        {
          "internalType": "address",
          "name": "recipient",
          "type": "address"
        },
        {
          "internalType": "uint256",
          "name": "amount",
          "type": "uint256"
        }
      ],
      "name": "transferFrom",
      "outputs": [
        {
          "internalType": "bool",
          "name": "",
          "type": "bool"
        }
      ],
      "stateMutability": "nonpayable",
      "type": "function"
    },
    {
      "inputs": [],
      "name": "unpause",
      "outputs": [],
      "stateMutability": "nonpayable",
      "type": "function"
    },
    {
      "inputs": [
        {
          "internalType": "string",
          "name": "name",
          "type": "string"
        },
        {
          "internalType": "string",
          "name": "symbol",
          "type": "string"
        }
      ],
      "name": "initialize",
      "outputs": [],
      "stateMutability": "nonpayable",
      "type": "function"
    }
  ],
  "bytecode": "0x608060405234801561001057600080fd5b50611ed1806100206000396000f3fe608060405234801561001057600080fd5b50600436106101a35760003560e01c80635c975abb116100ee578063a217fddf11610097578063ca15c87311610071578063ca15c87314610676578063d547741f14610693578063dd62ed3e146106bf578063e63ab1e9146106ed576101a3565b8063a217fddf14610616578063a457c2d71461061e578063a9059cbb1461064a576101a3565b80639010d07c116100c85780639010d07c146105a357806391d14854146105e257806395d89b411461060e576101a3565b80635c975abb1461056d57806370a08231146105755780638456cb591461059b576101a3565b8063313ce567116101505780633b3e672f1161012a5780633b3e672f146103765780633f4ba83a146104385780634cd88b7614610440576101a3565b8063313ce5671461030057806336568abe1461031e578063395093511461034a576101a3565b806323b872dd1161018157806323b872dd1461027f578063248a9ca3146102b55780632f2ff15d146102d2576101a3565b806306fdde03146101a8578063095ea7b31461022557806318160ddd14610265575b600080fd5b6101b06106f5565b6040805160208082528351818301528351919283929083019185019080838360005b838110156101ea5781810151838201526020016101d2565b50505050905090810190601f1680156102175780820380516001836020036101000a031916815260200191505b509250505060405180910390f35b6102516004803603604081101561023b57600080fd5b506001600160a01b03813516906020013561078c565b604080519115158252519081900360200190f35b61026d6107aa565b60408051918252519081900360200190f35b6102516004803603606081101561029557600080fd5b506001600160a01b038135811691602081013590911690604001356107b0565b61026d600480360360208110156102cb57600080fd5b503561083d565b6102fe600480360360408110156102e857600080fd5b50803590602001356001600160a01b0316610852565b005b6103086108be565b6040805160ff9092168252519081900360200190f35b6102fe6004803603604081101561033457600080fd5b50803590602001356001600160a01b03166108c7565b6102516004803603604081101561036057600080fd5b506001600160a01b038135169060200135610928565b6102516004803603604081101561038c57600080fd5b8101906020810181356401000000008111156103a757600080fd5b8201836020820111156103b957600080fd5b803590602001918460208302840111640100000000831117156103db57600080fd5b9193909290916020810190356401000000008111156103f957600080fd5b82018360208201111561040b57600080fd5b8035906020019184602083028401116401000000008311171561042d57600080fd5b50909250905061097c565b6102fe610b34565b6102fe6004803603604081101561045657600080fd5b81019060208101813564010000000081111561047157600080fd5b82018360208201111561048357600080fd5b803590602001918460018302840111640100000000831117156104a557600080fd5b91908080601f01602080910402602001604051908101604052809392919081815260200183838082843760009201919091525092959493602081019350359150506401000000008111156104f857600080fd5b82018360208201111561050a57600080fd5b8035906020019184600183028401116401000000008311171561052c57600080fd5b91908080601f016020809104026020016040519081016040528093929190818152602001838380828437600092019190915250929550610ba5945050505050565b610251610c7b565b61026d6004803603602081101561058b57600080fd5b50356001600160a01b0316610c84565b6102fe610c9f565b6105c6600480360360408110156105b957600080fd5b5080359060200135610d0e565b604080516001600160a01b039092168252519081900360200190f35b610251600480360360408110156105f857600080fd5b50803590602001356001600160a01b0316610d33565b6101b0610d51565b61026d610db2565b6102516004803603604081101561063457600080fd5b506001600160a01b038135169060200135610db7565b6102516004803603604081101561066057600080fd5b506001600160a01b038135169060200135610e25565b61026d6004803603602081101561068c57600080fd5b5035610e39565b6102fe600480360360408110156106a957600080fd5b50803590602001356001600160a01b0316610e50565b61026d600480360360408110156106d557600080fd5b506001600160a01b0381358116916020013516610ea9565b61026d610ed4565b609a8054604080516020601f60026000196101006001881615020190951694909404938401819004810282018101909252828152606093909290918301828280156107815780601f1061075657610100808354040283529160200191610781565b820191906000526020600020905b81548152906001019060200180831161076457829003601f168201915b505050505090505b90565b60006107a0610799610ef7565b8484610efb565b5060015b92915050565b60995490565b60006107bd848484610fe7565b610833846107c9610ef7565b61082e85604051806060016040528060288152602001611d78602891396001600160a01b038a16600090815260986020526040812090610807610ef7565b6001600160a01b03168152602081019190915260400160002054919063ffffffff61114d16565b610efb565b5060019392505050565b60009081526065602052604090206002015490565b60008281526065602052604090206002015461087590610870610ef7565b610d33565b6108b05760405162461bcd60e51b815260040180806020018281038252602f815260200180611c39602f913960400191505060405180910390fd5b6108ba82826111e4565b5050565b609c5460ff1690565b6108cf610ef7565b6001600160a01b0316816001600160a01b03161461091e5760405162461bcd60e51b815260040180806020018281038252602f815260200180611e6d602f913960400191505060405180910390fd5b6108ba8282611253565b60006107a0610935610ef7565b8461082e8560986000610946610ef7565b6001600160a01b03908116825260208083019390935260409182016000908120918c16815292529020549063ffffffff6112c216565b600083821461098a57600080fd5b61099261131c565b600061099c610ef7565b6001600160a01b0381166000908152609760205260408120549192505b84811015610b0e5760008686838181106109cf57fe5b90506020020135905060008989848181106109e657fe5b905060200201356001600160a01b0316905081841015610a375760405162461bcd60e51b815260040180806020018281038252602e815260200180611c8a602e913960400191505060405180910390fd5b6001600160a01b038116610a7c5760405162461bcd60e51b8152600401808060200182810382526023815260200180611c166023913960400191505060405180910390fd5b806001600160a01b0316856001600160a01b031614610ab9576001600160a01b038116600090815260976020526040902080548301905592819003925b806001600160a01b0316856001600160a01b03167fddf252ad1be2c89b69c2b068fc378daa952ba7f163c4a11628f55a4df523b3ef846040518082815260200191505060405180910390a350506001016109b9565b506001600160a01b03909116600090815260976020526040902055506001949350505050565b604080516a5041555345525f524f4c4560a81b8152905190819003600b019020610b6090610870610ef7565b610b9b5760405162461bcd60e51b8152600401808060200182810382526036815260200180611cde6036913960400191505060405180910390fd5b610ba3611368565b565b600054610100900460ff1680610bbe5750610bbe61140f565b80610bcc575060005460ff16155b610c075760405162461bcd60e51b815260040180806020018281038252602e815260200180611da0602e913960400191505060405180910390fd5b600054610100900460ff16158015610c32576000805460ff1961ff0019909116610100171660011790555b610c3a611415565b610c42611415565b610c4c83836114b7565b610c5461158f565b610c5c61163a565b610c64611705565b8015610c76576000805461ff00191690555b505050565b60c95460ff1690565b6001600160a01b031660009081526097602052604090205490565b604080516a5041555345525f524f4c4560a81b8152905190819003600b019020610ccb90610870610ef7565b610d065760405162461bcd60e51b8152600401808060200182810382526034815260200180611d446034913960400191505060405180910390fd5b610ba36117b7565b6000828152606560205260408120610d2c908363ffffffff61184516565b9392505050565b6000828152606560205260408120610d2c908363ffffffff61185116565b609b8054604080516020601f60026000196101006001881615020190951694909404938401819004810282018101909252828152606093909290918301828280156107815780601f1061075657610100808354040283529160200191610781565b600081565b60006107a0610dc4610ef7565b8461082e85604051806060016040528060258152602001611e176025913960986000610dee610ef7565b6001600160a01b03908116825260208083019390935260409182016000908120918d1681529252902054919063ffffffff61114d16565b60006107a0610e32610ef7565b8484610fe7565b60008181526065602052604081206107a490611866565b600082815260656020526040902060020154610e6e90610870610ef7565b61091e5760405162461bcd60e51b8152600401808060200182810382526030815260200180611d146030913960400191505060405180910390fd5b6001600160a01b03918216600090815260986020908152604080832093909416825291909152205490565b604080516a5041555345525f524f4c4560a81b8152905190819003600b01902081565b3390565b6001600160a01b038316610f405760405162461bcd60e51b8152600401808060200182810382526024815260200180611df36024913960400191505060405180910390fd5b6001600160a01b038216610f855760405162461bcd60e51b8152600401808060200182810382526022815260200180611c686022913960400191505060405180910390fd5b6001600160a01b03808416600081815260986020908152604080832094871680845294825291829020859055815185815291517f8c5be1e5ebec7d5bd14f71427d1e84f3dd0314c0f7b2291e5b200ac8c7c3b9259281900390910190a3505050565b6001600160a01b03831661102c5760405162461bcd60e51b8152600401808060200182810382526025815260200180611dce6025913960400191505060405180910390fd5b6001600160a01b0382166110715760405162461bcd60e51b8152600401808060200182810382526023815260200180611c166023913960400191505060405180910390fd5b61107961131c565b6110bc81604051806060016040528060268152602001611cb8602691396001600160a01b038616600090815260976020526040902054919063ffffffff61114d16565b6001600160a01b0380851660009081526097602052604080822093909355908416815220546110f1908263ffffffff6112c216565b6001600160a01b0380841660008181526097602090815260409182902094909455805185815290519193928716927fddf252ad1be2c89b69c2b068fc378daa952ba7f163c4a11628f55a4df523b3ef92918290030190a3505050565b600081848411156111dc5760405162461bcd60e51b81526004018080602001828103825283818151815260200191508051906020019080838360005b838110156111a1578181015183820152602001611189565b50505050905090810190601f1680156111ce5780820380516001836020036101000a031916815260200191505b509250505060405180910390fd5b505050900390565b6000828152606560205260409020611202908263ffffffff61187116565b156108ba5761120f610ef7565b6001600160a01b0316816001600160a01b0316837f2f8788117e7eff1d82e926ec794901d17c78024a50270940304540a733656f0d60405160405180910390a45050565b6000828152606560205260409020611271908263ffffffff61188616565b156108ba5761127e610ef7565b6001600160a01b0316816001600160a01b0316837ff6391f5c32d9c69d2a47ea670b442974b53935d1edc7fd64eb21e047a839171b60405160405180910390a45050565b600082820183811015610d2c576040805162461bcd60e51b815260206004820152601b60248201527f536166654d6174683a206164646974696f6e206f766572666c6f770000000000604482015290519081900360640190fd5b611324610ba3565b61132c610c7b565b15610ba35760405162461bcd60e51b8152600401808060200182810382526031815260200180611e3c6031913960400191505060405180910390fd5b60c95460ff166113bf576040805162461bcd60e51b815260206004820152601460248201527f5061757361626c653a206e6f7420706175736564000000000000000000000000604482015290519081900360640190fd5b60c9805460ff191690557f5db9ee0a495bf2e6ff9c91a7834c1ba4fdd244a5e8aa4e537bd38aeae4b073aa6113f2610ef7565b604080516001600160a01b039092168252519081900360200190a1565b303b1590565b600054610100900460ff168061142e575061142e61140f565b8061143c575060005460ff16155b6114775760405162461bcd60e51b815260040180806020018281038252602e815260200180611da0602e913960400191505060405180910390fd5b600054610100900460ff161580156114a2576000805460ff1961ff0019909116610100171660011790555b80156114b4576000805461ff00191690555b50565b600054610100900460ff16806114d057506114d061140f565b806114de575060005460ff16155b6115195760405162461bcd60e51b815260040180806020018281038252602e815260200180611da0602e913960400191505060405180910390fd5b600054610100900460ff16158015611544576000805460ff1961ff0019909116610100171660011790555b825161155790609a906020860190611b5b565b50815161156b90609b906020850190611b5b565b50609c805460ff191660121790558015610c76576000805461ff0019169055505050565b600054610100900460ff16806115a857506115a861140f565b806115b6575060005460ff16155b6115f15760405162461bcd60e51b815260040180806020018281038252602e815260200180611da0602e913960400191505060405180910390fd5b600054610100900460ff1615801561161c576000805460ff1961ff0019909116610100171660011790555b60c9805460ff1916905580156114b4576000805461ff001916905550565b600054610100900460ff1680611653575061165361140f565b80611661575060005460ff16155b61169c5760405162461bcd60e51b815260040180806020018281038252602e815260200180611da0602e913960400191505060405180910390fd5b600054610100900460ff161580156116c7576000805460ff1961ff0019909116610100171660011790555b6116d960006116d4610ef7565b6108b0565b604080516a5041555345525f524f4c4560a81b8152905190819003600b0190206114a2906116d4610ef7565b600054610100900460ff168061171e575061171e61140f565b8061172c575060005460ff16155b6117675760405162461bcd60e51b815260040180806020018281038252602e815260200180611da0602e913960400191505060405180910390fd5b600054610100900460ff16158015611792576000805460ff1961ff0019909116610100171660011790555b6b019d971e4fe8401e7400000061012d556114a26117ae610ef7565b61012d5461189b565b60c95460ff161561180f576040805162461bcd60e51b815260206004820152601060248201527f5061757361626c653a2070617573656400000000000000000000000000000000604482015290519081900360640190fd5b60c9805460ff191660011790557f62e78cea01bee320cd4e420270b5ea74000d11b0c9f74754ebdbfc544b05a2586113f2610ef7565b6000610d2c8383611999565b6000610d2c836001600160a01b0384166119fd565b60006107a482611a15565b6000610d2c836001600160a01b038416611a19565b6000610d2c836001600160a01b038416611a63565b6001600160a01b0382166118f6576040805162461bcd60e51b815260206004820152601f60248201527f45524332303a206d696e7420746f20746865207a65726f206164647265737300604482015290519081900360640190fd5b61190260008383611b29565b609954611915908263ffffffff6112c216565b6099556001600160a01b038216600090815260976020526040902054611941908263ffffffff6112c216565b6001600160a01b03831660008181526097602090815260408083209490945583518581529351929391927fddf252ad1be2c89b69c2b068fc378daa952ba7f163c4a11628f55a4df523b3ef9281900390910190a35050565b815460009082106119db5760405162461bcd60e51b8152600401808060200182810382526022815260200180611bf46022913960400191505060405180910390fd5b8260000182815481106119ea57fe5b9060005260206000200154905092915050565b60009081526001919091016020526040902054151590565b5490565b6000611a2583836119fd565b611a5b575081546001818101845560008481526020808220909301849055845484825282860190935260409020919091556107a4565b5060006107a4565b60008181526001830160205260408120548015611b1f5783546000198083019190810190600090879083908110611a9657fe5b9060005260206000200154905080876000018481548110611ab357fe5b600091825260208083209091019290925582815260018981019092526040902090840190558654879080611ae357fe5b600190038181906000526020600020016000905590558660010160008781526020019081526020016000206000905560019450505050506107a4565b60009150506107a4565b61012d54611b4582611b396107aa565b9063ffffffff6112c216565b1115611b5057600080fd5b610c76838383610c76565b828054600181600116156101000203166002900490600052602060002090601f016020900481019282601f10611b9c57805160ff1916838001178555611bc9565b82800160010185558215611bc9579182015b82811115611bc9578251825591602001919060010190611bae565b50611bd5929150611bd9565b5090565b61078991905b80821115611bd55760008155600101611bdf56fe456e756d657261626c655365743a20696e646578206f7574206f6620626f756e647345524332303a207472616e7366657220746f20746865207a65726f2061646472657373416363657373436f6e74726f6c3a2073656e646572206d75737420626520616e2061646d696e20746f206772616e7445524332303a20617070726f766520746f20746865207a65726f206164647265737345524332303a20496e73756666696369656e742062616c616e636520666f72206261746368207472616e7366657245524332303a207472616e7366657220616d6f756e7420657863656564732062616c616e63654d616e61676564456e68616e63656445524332303a206d75737420686176652070617573657220726f6c6520746f20756e7061757365416363657373436f6e74726f6c3a2073656e646572206d75737420626520616e2061646d696e20746f207265766f6b654d616e61676564456e68616e63656445524332303a206d75737420686176652070617573657220726f6c6520746f20706175736545524332303a207472616e7366657220616d6f756e74206578636565647320616c6c6f77616e6365436f6e747261637420696e7374616e63652068617320616c7265616479206265656e20696e697469616c697a656445524332303a207472616e736665722066726f6d20746865207a65726f206164647265737345524332303a20617070726f76652066726f6d20746865207a65726f206164647265737345524332303a2064656372656173656420616c6c6f77616e63652062656c6f77207a65726f4d616e61676564456e68616e63656445524332303a20746f6b656e207472616e73666572207768696c6520706175736564416363657373436f6e74726f6c3a2063616e206f6e6c792072656e6f756e636520726f6c657320666f722073656c66a2646970667358221220648faab14d69009082c13bb24769084bb0c398c91c7b300030e4d44996662c0764736f6c63430006020033",
  "source": "pragma solidity 0.6.2;\n\nimport \"@openzeppelin/contracts-ethereum-package/contracts/Initializable.sol\";\nimport \"@openzeppelin/contracts-ethereum-package/contracts/math/SafeMath.sol\";\nimport \"./ManagedEnhancedERC20.sol\";\n\n/**\n * @dev Presearch ERC20 Token\n *\n * Supply capped at 500M.\n */\ncontract PREToken is Initializable, ManagedEnhancedERC20  {\n    using SafeMath for uint256;\n\n    uint256 internal _maxSupply;\n\n    function initialize(string memory name, string memory symbol) public initializer {\n        __Context_init_unchained();\n        __AccessControl_init_unchained();\n        __ERC20_init_unchained(name, symbol);\n        __Pausable_init_unchained();\n        __ManagedEnhancedERC20_init_unchained();\n        __PREToken_init_unchained(); \n    }\n\n    function __PREToken_init_unchained() internal initializer {\n        _maxSupply = 500000000e18;\n        _mint(_msgSender(), _maxSupply); \n    }\n\n    function _beforeMint(address from, address to, uint256 amount) internal virtual override {\n        require(totalSupply().add(amount) <= _maxSupply);\n        super._beforeMint(from, to, amount);\n    }\n\n    uint256[50] private __gap;\n\n}\n",
  "sourcePath": "/Users/treygrainger/Desktop/PRE-Token-multisig/contracts/PREToken.sol",
  "compiler": {
    "name": "solc",
    "version": "0.6.2+commit.bacdbe57.Emscripten.clang"
  },
  "schemaVersion": "3.2.5",
  "updatedAt": "2023-09-01T09:36:38.418Z",
  "networkType": "ethereum",
  "devdoc": {
    "details": "Presearch ERC20 Token * Supply capped at 500M.",
    "methods": {
      "allowance(address,address)": {
        "details": "See {IERC20-allowance}."
      },
      "approve(address,uint256)": {
        "details": "See {IERC20-approve}.     * Requirements:     * - `spender` cannot be the zero address."
      },
      "balanceOf(address)": {
        "details": "See {IERC20-balanceOf}."
      },
      "decimals()": {
        "details": "Returns the number of decimals used to get its user representation. For example, if `decimals` equals `2`, a balance of `505` tokens should be displayed to a user as `5,05` (`505 / 10 ** 2`).     * Tokens usually opt for a value of 18, imitating the relationship between Ether and Wei. This is the value {ERC20} uses, unless {_setupDecimals} is called.     * NOTE: This information is only used for _display_ purposes: it in no way affects any of the arithmetic of the contract, including {IERC20-balanceOf} and {IERC20-transfer}."
      },
      "decreaseAllowance(address,uint256)": {
        "details": "Atomically decreases the allowance granted to `spender` by the caller.     * This is an alternative to {approve} that can be used as a mitigation for problems described in {IERC20-approve}.     * Emits an {Approval} event indicating the updated allowance.     * Requirements:     * - `spender` cannot be the zero address. - `spender` must have allowance for the caller of at least `subtractedValue`."
      },
      "getRoleAdmin(bytes32)": {
        "details": "Returns the admin role that controls `role`. See {grantRole} and {revokeRole}.     * To change a role's admin, use {_setRoleAdmin}."
      },
      "getRoleMember(bytes32,uint256)": {
        "details": "Returns one of the accounts that have `role`. `index` must be a value between 0 and {getRoleMemberCount}, non-inclusive.     * Role bearers are not sorted in any particular way, and their ordering may change at any point.     * WARNING: When using {getRoleMember} and {getRoleMemberCount}, make sure you perform all queries on the same block. See the following https://forum.openzeppelin.com/t/iterating-over-elements-on-enumerableset-in-openzeppelin-contracts/2296[forum post] for more information."
      },
      "getRoleMemberCount(bytes32)": {
        "details": "Returns the number of accounts that have `role`. Can be used together with {getRoleMember} to enumerate all bearers of a role."
      },
      "grantRole(bytes32,address)": {
        "details": "Grants `role` to `account`.     * If `account` had not been already granted `role`, emits a {RoleGranted} event.     * Requirements:     * - the caller must have ``role``'s admin role."
      },
      "hasRole(bytes32,address)": {
        "details": "Returns `true` if `account` has been granted `role`."
      },
      "increaseAllowance(address,uint256)": {
        "details": "Atomically increases the allowance granted to `spender` by the caller.     * This is an alternative to {approve} that can be used as a mitigation for problems described in {IERC20-approve}.     * Emits an {Approval} event indicating the updated allowance.     * Requirements:     * - `spender` cannot be the zero address."
      },
      "name()": {
        "details": "Returns the name of the token."
      },
      "pause()": {
        "details": "Pauses all token transfers.     * See {ERC20Pausable} and {Pausable-_pause}.     * Requirements:     * - the caller must have the `PAUSER_ROLE`."
      },
      "paused()": {
        "details": "Returns true if the contract is paused, and false otherwise."
      },
      "renounceRole(bytes32,address)": {
        "details": "Revokes `role` from the calling account.     * Roles are often managed via {grantRole} and {revokeRole}: this function's purpose is to provide a mechanism for accounts to lose their privileges if they are compromised (such as when a trusted device is misplaced).     * If the calling account had been granted `role`, emits a {RoleRevoked} event.     * Requirements:     * - the caller must be `account`."
      },
      "revokeRole(bytes32,address)": {
        "details": "Revokes `role` from `account`.     * If `account` had been granted `role`, emits a {RoleRevoked} event.     * Requirements:     * - the caller must have ``role``'s admin role."
      },
      "symbol()": {
        "details": "Returns the symbol of the token, usually a shorter version of the name."
      },
      "totalSupply()": {
        "details": "See {IERC20-totalSupply}."
      },
      "transfer(address,uint256)": {
        "details": "See {IERC20-transfer}.     * Requirements:     * - `recipient` cannot be the zero address. - the caller must have a balance of at least `amount`."
      },
      "transferBatch(address[],uint256[])": {
        "details": "Send multiple transfers as a batch within a single transaction This is much more efficient than sending independent transactions.  This method should between 28% of gas (2 transfers)  and 50%-60% of gas (10+ transfers)     * Calling conditions:     * Emits an {Transfer} event for each individual successful transfer.     * Requirements:     * - `recipients[]` length must equal  `amounts[]` length. -  The amount to send `recipients[i]` must be at `amounts[i]` - `recipient` cannot be the zero address. - `balance` of the calling account must be >= the sum of values in `amounts` going to other accounts"
      },
      "transferFrom(address,address,uint256)": {
        "details": "See {IERC20-transferFrom}.     * Emits an {Approval} event indicating the updated allowance. This is not required by the EIP. See the note at the beginning of {ERC20};     * Requirements: - `sender` and `recipient` cannot be the zero address. - `sender` must have a balance of at least `amount`. - the caller must have allowance for ``sender``'s tokens of at least `amount`."
      },
      "unpause()": {
        "details": "Unpauses all token transfers.     * See {ERC20Pausable} and {Pausable-_unpause}.     * Requirements:     * - the caller must have the `PAUSER_ROLE`."
      }
    }
  },
  "userdoc": {
    "methods": {}
  }
}