{
  "contractName": "PRETokenV3",
  "abi": [
    {
      "anonymous": false,
      "inputs": [
        {
          "indexed": true,
          "internalType": "address",
          "name": "owner",
          "type": "address"
        },
        {
          "indexed": true,
          "internalType": "address",
          "name": "spender",
          "type": "address"
        },
        {
          "indexed": false,
          "internalType": "uint256",
          "name": "value",
          "type": "uint256"
        }
      ],
      "name": "Approval",
      "type": "event"
    },
    {
      "anonymous": false,
      "inputs": [
        {
          "indexed": true,
          "internalType": "address",
          "name": "authorizer",
          "type": "address"
        },
        {
          "indexed": true,
          "internalType": "bytes32",
          "name": "nonce",
          "type": "bytes32"
        }
      ],
      "name": "AuthorizationCanceled",
      "type": "event"
    },
    {
      "anonymous": false,
      "inputs": [
        {
          "indexed": true,
          "internalType": "address",
          "name": "authorizer",
          "type": "address"
        },
        {
          "indexed": true,
          "internalType": "bytes32",
          "name": "nonce",
          "type": "bytes32"
        }
      ],
      "name": "AuthorizationUsed",
      "type": "event"
    },
    {
      "anonymous": false,
      "inputs": [
        {
          "indexed": false,
          "internalType": "address",
          "name": "account",
          "type": "address"
        }
      ],
      "name": "Paused",
      "type": "event"
    },
    {
      "anonymous": false,
      "inputs": [
        {
          "indexed": true,
          "internalType": "bytes32",
          "name": "role",
          "type": "bytes32"
        },
        {
          "indexed": true,
          "internalType": "address",
          "name": "account",
          "type": "address"
        },
        {
          "indexed": true,
          "internalType": "address",
          "name": "sender",
          "type": "address"
        }
      ],
      "name": "RoleGranted",
      "type": "event"
    },
    {
      "anonymous": false,
      "inputs": [
        {
          "indexed": true,
          "internalType": "bytes32",
          "name": "role",
          "type": "bytes32"
        },
        {
          "indexed": true,
          "internalType": "address",
          "name": "account",
          "type": "address"
        },
        {
          "indexed": true,
          "internalType": "address",
          "name": "sender",
          "type": "address"
        }
      ],
      "name": "RoleRevoked",
      "type": "event"
    },
    {
      "anonymous": false,
      "inputs": [
        {
          "indexed": true,
          "internalType": "address",
          "name": "from",
          "type": "address"
        },
        {
          "indexed": true,
          "internalType": "address",
          "name": "to",
          "type": "address"
        },
        {
          "indexed": false,
          "internalType": "uint256",
          "name": "value",
          "type": "uint256"
        }
      ],
      "name": "Transfer",
      "type": "event"
    },
    {
      "anonymous": false,
      "inputs": [
        {
          "indexed": false,
          "internalType": "address",
          "name": "account",
          "type": "address"
        }
      ],
      "name": "Unpaused",
      "type": "event"
    },
    {
      "inputs": [],
      "name": "CANCEL_AUTHORIZATION_TYPEHASH",
      "outputs": [
        {
          "internalType": "bytes32",
          "name": "",
          "type": "bytes32"
        }
      ],
      "stateMutability": "view",
      "type": "function",
      "constant": true
    },
    {
      "inputs": [],
      "name": "DEFAULT_ADMIN_ROLE",
      "outputs": [
        {
          "internalType": "bytes32",
          "name": "",
          "type": "bytes32"
        }
      ],
      "stateMutability": "view",
      "type": "function",
      "constant": true
    },
    {
      "inputs": [],
      "name": "MINTER_ROLE",
      "outputs": [
        {
          "internalType": "bytes32",
          "name": "",
          "type": "bytes32"
        }
      ],
      "stateMutability": "view",
      "type": "function",
      "constant": true
    },
    {
      "inputs": [],
      "name": "PAUSER_ROLE",
      "outputs": [
        {
          "internalType": "bytes32",
          "name": "",
          "type": "bytes32"
        }
      ],
      "stateMutability": "view",
      "type": "function",
      "constant": true
    },
    {
      "inputs": [],
      "name": "RECEIVE_WITH_AUTHORIZATION_TYPEHASH",
      "outputs": [
        {
          "internalType": "bytes32",
          "name": "",
          "type": "bytes32"
        }
      ],
      "stateMutability": "view",
      "type": "function",
      "constant": true
    },
    {
      "inputs": [],
      "name": "TRANSFER_AUTHORIZER_ROLE",
      "outputs": [
        {
          "internalType": "bytes32",
          "name": "",
          "type": "bytes32"
        }
      ],
      "stateMutability": "view",
      "type": "function",
      "constant": true
    },
    {
      "inputs": [],
      "name": "TRANSFER_WITH_AUTHORIZATION_TYPEHASH",
      "outputs": [
        {
          "internalType": "bytes32",
          "name": "",
          "type": "bytes32"
        }
      ],
      "stateMutability": "view",
      "type": "function",
      "constant": true
    },
    {
      "inputs": [
        {
          "internalType": "address",
          "name": "owner",
          "type": "address"
        },
        {
          "internalType": "address",
          "name": "spender",
          "type": "address"
        }
      ],
      "name": "allowance",
      "outputs": [
        {
          "internalType": "uint256",
          "name": "",
          "type": "uint256"
        }
      ],
      "stateMutability": "view",
      "type": "function",
      "constant": true
    },
    {
      "inputs": [
        {
          "internalType": "address",
          "name": "spender",
          "type": "address"
        },
        {
          "internalType": "uint256",
          "name": "amount",
          "type": "uint256"
        }
      ],
      "name": "approve",
      "outputs": [
        {
          "internalType": "bool",
          "name": "",
          "type": "bool"
        }
      ],
      "stateMutability": "nonpayable",
      "type": "function"
    },
    {
      "inputs": [
        {
          "internalType": "address",
          "name": "authorizer",
          "type": "address"
        },
        {
          "internalType": "bytes32",
          "name": "nonce",
          "type": "bytes32"
        }
      ],
      "name": "authorizationState",
      "outputs": [
        {
          "internalType": "bool",
          "name": "",
          "type": "bool"
        }
      ],
      "stateMutability": "view",
      "type": "function",
      "constant": true
    },
    {
      "inputs": [
        {
          "internalType": "address",
          "name": "account",
          "type": "address"
        }
      ],
      "name": "balanceOf",
      "outputs": [
        {
          "internalType": "uint256",
          "name": "",
          "type": "uint256"
        }
      ],
      "stateMutability": "view",
      "type": "function",
      "constant": true
    },
    {
      "inputs": [
        {
          "internalType": "address",
          "name": "authorizer",
          "type": "address"
        },
        {
          "internalType": "bytes32",
          "name": "nonce",
          "type": "bytes32"
        },
        {
          "internalType": "uint8",
          "name": "v",
          "type": "uint8"
        },
        {
          "internalType": "bytes32",
          "name": "r",
          "type": "bytes32"
        },
        {
          "internalType": "bytes32",
          "name": "s",
          "type": "bytes32"
        }
      ],
      "name": "cancelAuthorization",
      "outputs": [],
      "stateMutability": "nonpayable",
      "type": "function"
    },
    {
      "inputs": [],
      "name": "decimals",
      "outputs": [
        {
          "internalType": "uint8",
          "name": "",
          "type": "uint8"
        }
      ],
      "stateMutability": "view",
      "type": "function",
      "constant": true
    },
    {
      "inputs": [
        {
          "internalType": "address",
          "name": "spender",
          "type": "address"
        },
        {
          "internalType": "uint256",
          "name": "subtractedValue",
          "type": "uint256"
        }
      ],
      "name": "decreaseAllowance",
      "outputs": [
        {
          "internalType": "bool",
          "name": "",
          "type": "bool"
        }
      ],
      "stateMutability": "nonpayable",
      "type": "function"
    },
    {
      "inputs": [],
      "name": "getDomainSeparator",
      "outputs": [
        {
          "internalType": "bytes32",
          "name": "",
          "type": "bytes32"
        }
      ],
      "stateMutability": "view",
      "type": "function",
      "constant": true
    },
    {
      "inputs": [
        {
          "internalType": "bytes32",
          "name": "role",
          "type": "bytes32"
        }
      ],
      "name": "getRoleAdmin",
      "outputs": [
        {
          "internalType": "bytes32",
          "name": "",
          "type": "bytes32"
        }
      ],
      "stateMutability": "view",
      "type": "function",
      "constant": true
    },
    {
      "inputs": [
        {
          "internalType": "bytes32",
          "name": "role",
          "type": "bytes32"
        },
        {
          "internalType": "uint256",
          "name": "index",
          "type": "uint256"
        }
      ],
      "name": "getRoleMember",
      "outputs": [
        {
          "internalType": "address",
          "name": "",
          "type": "address"
        }
      ],
      "stateMutability": "view",
      "type": "function",
      "constant": true
    },
    {
      "inputs": [
        {
          "internalType": "bytes32",
          "name": "role",
          "type": "bytes32"
        }
      ],
      "name": "getRoleMemberCount",
      "outputs": [
        {
          "internalType": "uint256",
          "name": "",
          "type": "uint256"
        }
      ],
      "stateMutability": "view",
      "type": "function",
      "constant": true
    },
    {
      "inputs": [
        {
          "internalType": "bytes32",
          "name": "role",
          "type": "bytes32"
        },
        {
          "internalType": "address",
          "name": "account",
          "type": "address"
        }
      ],
      "name": "grantRole",
      "outputs": [],
      "stateMutability": "nonpayable",
      "type": "function"
    },
    {
      "inputs": [
        {
          "internalType": "bytes32",
          "name": "role",
          "type": "bytes32"
        },
        {
          "internalType": "address",
          "name": "account",
          "type": "address"
        }
      ],
      "name": "hasRole",
      "outputs": [
        {
          "internalType": "bool",
          "name": "",
          "type": "bool"
        }
      ],
      "stateMutability": "view",
      "type": "function",
      "constant": true
    },
    {
      "inputs": [
        {
          "internalType": "address",
          "name": "spender",
          "type": "address"
        },
        {
          "internalType": "uint256",
          "name": "addedValue",
          "type": "uint256"
        }
      ],
      "name": "increaseAllowance",
      "outputs": [
        {
          "internalType": "bool",
          "name": "",
          "type": "bool"
        }
      ],
      "stateMutability": "nonpayable",
      "type": "function"
    },
    {
      "inputs": [],
      "name": "name",
      "outputs": [
        {
          "internalType": "string",
          "name": "",
          "type": "string"
        }
      ],
      "stateMutability": "view",
      "type": "function",
      "constant": true
    },
    {
      "inputs": [],
      "name": "pause",
      "outputs": [],
      "stateMutability": "nonpayable",
      "type": "function"
    },
    {
      "inputs": [],
      "name": "paused",
      "outputs": [
        {
          "internalType": "bool",
          "name": "",
          "type": "bool"
        }
      ],
      "stateMutability": "view",
      "type": "function",
      "constant": true
    },
    {
      "inputs": [
        {
          "internalType": "address",
          "name": "from",
          "type": "address"
        },
        {
          "internalType": "address",
          "name": "to",
          "type": "address"
        },
        {
          "internalType": "uint256",
          "name": "value",
          "type": "uint256"
        },
        {
          "internalType": "uint256",
          "name": "validAfter",
          "type": "uint256"
        },
        {
          "internalType": "uint256",
          "name": "validBefore",
          "type": "uint256"
        },
        {
          "internalType": "bytes32",
          "name": "nonce",
          "type": "bytes32"
        },
        {
          "internalType": "uint8",
          "name": "v",
          "type": "uint8"
        },
        {
          "internalType": "bytes32",
          "name": "r",
          "type": "bytes32"
        },
        {
          "internalType": "bytes32",
          "name": "s",
          "type": "bytes32"
        }
      ],
      "name": "receiveWithAuthorization",
      "outputs": [],
      "stateMutability": "nonpayable",
      "type": "function"
    },
    {
      "inputs": [
        {
          "internalType": "bytes32",
          "name": "role",
          "type": "bytes32"
        },
        {
          "internalType": "address",
          "name": "account",
          "type": "address"
        }
      ],
      "name": "renounceRole",
      "outputs": [],
      "stateMutability": "nonpayable",
      "type": "function"
    },
    {
      "inputs": [
        {
          "internalType": "bytes32",
          "name": "role",
          "type": "bytes32"
        },
        {
          "internalType": "address",
          "name": "account",
          "type": "address"
        }
      ],
      "name": "revokeRole",
      "outputs": [],
      "stateMutability": "nonpayable",
      "type": "function"
    },
    {
      "inputs": [],
      "name": "symbol",
      "outputs": [
        {
          "internalType": "string",
          "name": "",
          "type": "string"
        }
      ],
      "stateMutability": "view",
      "type": "function",
      "constant": true
    },
    {
      "inputs": [],
      "name": "totalSupply",
      "outputs": [
        {
          "internalType": "uint256",
          "name": "",
          "type": "uint256"
        }
      ],
      "stateMutability": "view",
      "type": "function",
      "constant": true
    },
    {
      "inputs": [
        {
          "internalType": "address",
          "name": "recipient",
          "type": "address"
        },
        {
          "internalType": "uint256",
          "name": "amount",
          "type": "uint256"
        }
      ],
      "name": "transfer",
      "outputs": [
        {
          "internalType": "bool",
          "name": "",
          "type": "bool"
        }
      ],
      "stateMutability": "nonpayable",
      "type": "function"
    },
    {
      "inputs": [
        {
          "internalType": "address[]",
          "name": "recipients",
          "type": "address[]"
        },
        {
          "internalType": "uint256[]",
          "name": "amounts",
          "type": "uint256[]"
        }
      ],
      "name": "transferBatch",
      "outputs": [
        {
          "internalType": "bool",
          "name": "",
          "type": "bool"
        }
      ],
      "stateMutability": "nonpayable",
      "type": "function"
    },
    {
      "inputs": [
        {
          "internalType": "address",
          "name": "sender",
          "type": "address"
        },
        {
          "internalType": "address",
          "name": "recipient",
          "type": "address"
        },
        {
          "internalType": "uint256",
          "name": "amount",
          "type": "uint256"
        }
      ],
      "name": "transferFrom",
      "outputs": [
        {
          "internalType": "bool",
          "name": "",
          "type": "bool"
        }
      ],
      "stateMutability": "nonpayable",
      "type": "function"
    },
    {
      "inputs": [
        {
          "internalType": "address",
          "name": "from",
          "type": "address"
        },
        {
          "internalType": "address",
          "name": "to",
          "type": "address"
        },
        {
          "internalType": "uint256",
          "name": "value",
          "type": "uint256"
        },
        {
          "internalType": "uint256",
          "name": "validAfter",
          "type": "uint256"
        },
        {
          "internalType": "uint256",
          "name": "validBefore",
          "type": "uint256"
        },
        {
          "internalType": "bytes32",
          "name": "nonce",
          "type": "bytes32"
        },
        {
          "internalType": "uint8",
          "name": "v",
          "type": "uint8"
        },
        {
          "internalType": "bytes32",
          "name": "r",
          "type": "bytes32"
        },
        {
          "internalType": "bytes32",
          "name": "s",
          "type": "bytes32"
        }
      ],
      "name": "transferWithAuthorization",
      "outputs": [],
      "stateMutability": "nonpayable",
      "type": "function"
    },
    {
      "inputs": [],
      "name": "unpause",
      "outputs": [],
      "stateMutability": "nonpayable",
      "type": "function"
    },
    {
      "inputs": [
        {
          "internalType": "string",
          "name": "name",
          "type": "string"
        },
        {
          "internalType": "string",
          "name": "symbol",
          "type": "string"
        }
      ],
      "name": "initialize",
      "outputs": [],
      "stateMutability": "nonpayable",
      "type": "function"
    },
    {
      "inputs": [],
      "name": "initialize",
      "outputs": [],
      "stateMutability": "nonpayable",
      "type": "function"
    },
    {
      "inputs": [
        {
          "internalType": "address",
          "name": "to",
          "type": "address"
        },
        {
          "internalType": "uint256",
          "name": "amount",
          "type": "uint256"
        }
      ],
      "name": "mint",
      "outputs": [],
      "stateMutability": "nonpayable",
      "type": "function"
    },
    {
      "inputs": [
        {
          "internalType": "uint256",
          "name": "amount",
          "type": "uint256"
        }
      ],
      "name": "burn",
      "outputs": [],
      "stateMutability": "nonpayable",
      "type": "function"
    },
    {
      "inputs": [],
      "name": "recover",
      "outputs": [],
      "stateMutability": "nonpayable",
      "type": "function"
    }
  ],
  "bytecode": "0x608060405234801561001057600080fd5b506131b9806100206000396000f3fe608060405234801561001057600080fd5b50600436106102ad5760003560e01c80638456cb591161017b578063ce746024116100d8578063e3ee160e1161008c578063e94a010211610071578063e94a010214610920578063ed24911d1461094c578063ef55bec614610954576102ad565b8063e3ee160e146108b9578063e63ab1e914610918576102ad565b8063d547741f116100bd578063d547741f14610857578063d916948714610883578063dd62ed3e1461088b576102ad565b8063ce74602414610847578063d53913931461084f576102ad565b8063a217fddf1161012f578063a9059cbb11610114578063a9059cbb146107f6578063b17123b214610822578063ca15c8731461082a576102ad565b8063a217fddf146107c2578063a457c2d7146107ca576102ad565b806391d148541161016057806391d148541461078657806395d89b41146107b2578063a0cc6a68146107ba576102ad565b80638456cb591461073f5780639010d07c14610747576102ad565b80633b3e672f116102295780635a049a70116101dd57806370a08231116101c257806370a08231146107095780637f2eecc31461072f5780638129fc1c14610737576102ad565b80635a049a70146106c05780635c975abb14610701576102ad565b806340c10f191161020e57806340c10f191461054a57806342966c68146105765780634cd88b7614610593576102ad565b80633b3e672f146104805780633f4ba83a14610542576102ad565b8063248a9ca311610280578063313ce56711610265578063313ce5671461040a57806336568abe146104285780633950935114610454576102ad565b8063248a9ca3146103bf5780632f2ff15d146103dc576102ad565b806306fdde03146102b2578063095ea7b31461032f57806318160ddd1461036f57806323b872dd14610389575b600080fd5b6102ba6109b3565b6040805160208082528351818301528351919283929083019185019080838360005b838110156102f45781810151838201526020016102dc565b50505050905090810190601f1680156103215780820380516001836020036101000a031916815260200191505b509250505060405180910390f35b61035b6004803603604081101561034557600080fd5b506001600160a01b038135169060200135610a4a565b604080519115158252519081900360200190f35b610377610a68565b60408051918252519081900360200190f35b61035b6004803603606081101561039f57600080fd5b506001600160a01b03813581169160208101359091169060400135610a6e565b610377600480360360208110156103d557600080fd5b5035610afb565b610408600480360360408110156103f257600080fd5b50803590602001356001600160a01b0316610b10565b005b610412610b7c565b6040805160ff9092168252519081900360200190f35b6104086004803603604081101561043e57600080fd5b50803590602001356001600160a01b0316610b85565b61035b6004803603604081101561046a57600080fd5b506001600160a01b038135169060200135610be6565b61035b6004803603604081101561049657600080fd5b8101906020810181356401000000008111156104b157600080fd5b8201836020820111156104c357600080fd5b803590602001918460208302840111640100000000831117156104e557600080fd5b91939092909160208101903564010000000081111561050357600080fd5b82018360208201111561051557600080fd5b8035906020019184602083028401116401000000008311171561053757600080fd5b509092509050610c3a565b610408610df2565b6104086004803603604081101561056057600080fd5b506001600160a01b038135169060200135610e63565b6104086004803603602081101561058c57600080fd5b5035610ed4565b610408600480360360408110156105a957600080fd5b8101906020810181356401000000008111156105c457600080fd5b8201836020820111156105d657600080fd5b803590602001918460018302840111640100000000831117156105f857600080fd5b91908080601f016020809104026020016040519081016040528093929190818152602001838380828437600092019190915250929594936020810193503591505064010000000081111561064b57600080fd5b82018360208201111561065d57600080fd5b8035906020019184600183028401116401000000008311171561067f57600080fd5b91908080601f016020809104026020016040519081016040528093929190818152602001838380828437600092019190915250929550610ee8945050505050565b610408600480360360a08110156106d657600080fd5b506001600160a01b038135169060208101359060ff6040820135169060608101359060800135610fbe565b61035b611215565b6103776004803603602081101561071f57600080fd5b50356001600160a01b031661121e565b610377611239565b61040861125d565b61040861133a565b61076a6004803603604081101561075d57600080fd5b50803590602001356113a9565b604080516001600160a01b039092168252519081900360200190f35b61035b6004803603604081101561079c57600080fd5b50803590602001356001600160a01b03166113ce565b6102ba6113ec565b61037761144d565b610377611471565b61035b600480360360408110156107e057600080fd5b506001600160a01b038135169060200135611476565b61035b6004803603604081101561080c57600080fd5b506001600160a01b0381351690602001356114e4565b6103776114f8565b6103776004803603602081101561084057600080fd5b503561152d565b610408611544565b6103776115ce565b6104086004803603604081101561086d57600080fd5b50803590602001356001600160a01b03166115f1565b61037761164a565b610377600480360360408110156108a157600080fd5b506001600160a01b038135811691602001351661166e565b61040860048036036101208110156108d057600080fd5b506001600160a01b03813581169160208101359091169060408101359060608101359060808101359060a08101359060ff60c0820135169060e0810135906101000135611699565b61037761174d565b61035b6004803603604081101561093657600080fd5b506001600160a01b038135169060200135611770565b61037761179c565b610408600480360361012081101561096b57600080fd5b506001600160a01b03813581169160208101359091169060408101359060608101359060808101359060a08101359060ff60c0820135169060e08101359061010001356117ab565b609a8054604080516020601f6002600019610100600188161502019095169490940493840181900481028201810190925282815260609390929091830182828015610a3f5780601f10610a1457610100808354040283529160200191610a3f565b820191906000526020600020905b815481529060010190602001808311610a2257829003601f168201915b505050505090505b90565b6000610a5e610a576118ab565b84846118af565b5060015b92915050565b60995490565b6000610a7b84848461199b565b610af184610a876118ab565b610aec8560405180606001604052806028815260200161301e602891396001600160a01b038a16600090815260986020526040812090610ac56118ab565b6001600160a01b03168152602081019190915260400160002054919063ffffffff611b0116565b6118af565b5060019392505050565b60009081526065602052604090206002015490565b600082815260656020526040902060020154610b3390610b2e6118ab565b6113ce565b610b6e5760405162461bcd60e51b815260040180806020018281038252602f815260200180612cfe602f913960400191505060405180910390fd5b610b788282611b5b565b5050565b609c5460ff1690565b610b8d6118ab565b6001600160a01b0316816001600160a01b031614610bdc5760405162461bcd60e51b815260040180806020018281038252602f815260200180613155602f913960400191505060405180910390fd5b610b788282611bca565b6000610a5e610bf36118ab565b84610aec8560986000610c046118ab565b6001600160a01b03908116825260208083019390935260409182016000908120918c16815292529020549063ffffffff611c3916565b6000838214610c4857600080fd5b610c50611c93565b6000610c5a6118ab565b6001600160a01b0381166000908152609760205260408120549192505b84811015610dcc576000868683818110610c8d57fe5b9050602002013590506000898984818110610ca457fe5b905060200201356001600160a01b0316905081841015610cf55760405162461bcd60e51b815260040180806020018281038252602e815260200180612d71602e913960400191505060405180910390fd5b6001600160a01b038116610d3a5760405162461bcd60e51b8152600401808060200182810382526023815260200180612cdb6023913960400191505060405180910390fd5b806001600160a01b0316856001600160a01b031614610d77576001600160a01b038116600090815260976020526040902080548301905592819003925b806001600160a01b0316856001600160a01b03167fddf252ad1be2c89b69c2b068fc378daa952ba7f163c4a11628f55a4df523b3ef846040518082815260200191505060405180910390a35050600101610c77565b506001600160a01b03909116600090815260976020526040902055506001949350505050565b604080516a5041555345525f524f4c4560a81b8152905190819003600b019020610e1e90610b2e6118ab565b610e595760405162461bcd60e51b8152600401808060200182810382526036815260200180612e3d6036913960400191505060405180910390fd5b610e61611cdf565b565b604080516a4d494e5445525f524f4c4560a81b8152905190819003600b019020610e8f90610b2e6118ab565b610eca5760405162461bcd60e51b8152600401808060200182810382526030815260200180612d9f6030913960400191505060405180910390fd5b610b788282611d86565b610ee5610edf6118ab565b82611e84565b50565b600054610100900460ff1680610f015750610f01611f8c565b80610f0f575060005460ff16155b610f4a5760405162461bcd60e51b815260040180806020018281038252602e815260200180613046602e913960400191505060405180910390fd5b600054610100900460ff16158015610f75576000805460ff1961ff0019909116610100171660011790555b610f7d611f92565b610f85611f92565b610f8f8383612033565b610f9761210b565b610f9f6121b6565b610fa761227c565b8015610fb9576000805461ff00191690555b505050565b6001600160a01b038516600090815261019460209081526040808320878452825291829020548251808401909352601e83527f454950333030393a20617574686f72697a6174696f6e206973207573656400009183019190915260ff16156110a45760405162461bcd60e51b81526004018080602001828103825283818151815260200191508051906020019080838360005b83811015611069578181015183820152602001611051565b50505050905090810190601f1680156110965780820380516001836020036101000a031916815260200191505b509250505060405180910390fd5b50604080517f158b0a9edf7a828aad02f63cd515c68ef2f50ba807396f6d12842833a159742960208201526001600160a01b038716818301526060818101879052825180830390910181526080909101909152600061111061110461232e565b83516020850120612361565b9050866001600160a01b0316611128828787876123b7565b6001600160a01b0316146040518060400160405280601a81526020017f454950333030393a20696e76616c6964207369676e6174757265000000000000815250906111b45760405162461bcd60e51b8152602060048201818152835160248401528351909283926044909101919085019080838360008315611069578181015183820152602001611051565b506001600160a01b0387166000818152610194602090815260408083208a8452909152808220805460ff19166001179055518892917f1cdd46ff242716cdaa72d159d339a485b3438398348d68f09d7c8c0a59353d8191a350505050505050565b60c95460ff1690565b6001600160a01b031660009081526097602052604090205490565b7fd099cc98ef71107a616c4f0f941f04c322d8e254fe26b3c6668db87aae413de881565b6101f95460ff16156112a05760405162461bcd60e51b815260040180806020018281038252602b815260200180612e73602b913960400191505060405180910390fd5b6112ad6000610b2e6118ab565b6112e85760405162461bcd60e51b815260040180806020018281038252602f815260200180612ec0602f913960400191505060405180910390fd5b604080516a4d494e5445525f524f4c4560a81b8152905190819003600b019020611319906113146118ab565b610b6e565b6b033b2e3c9fd0803ce800000061012d556101f9805460ff19166001179055565b604080516a5041555345525f524f4c4560a81b8152905190819003600b01902061136690610b2e6118ab565b6113a15760405162461bcd60e51b8152600401808060200182810382526034815260200180612f1f6034913960400191505060405180910390fd5b610e616123df565b60008281526065602052604081206113c7908363ffffffff61246d16565b9392505050565b60008281526065602052604081206113c7908363ffffffff61247916565b609b8054604080516020601f6002600019610100600188161502019095169490940493840181900481028201810190925282815260609390929091830182828015610a3f5780601f10610a1457610100808354040283529160200191610a3f565b7f7c7c6cdb67a18743f49ec6fa9b35f50d52ed05cbed4cc592e13b44501c1a226781565b600081565b6000610a5e6114836118ab565b84610aec856040518060600160405280602581526020016130ff60259139609860006114ad6118ab565b6001600160a01b03908116825260208083019390935260409182016000908120918d1681529252902054919063ffffffff611b0116565b6000610a5e6114f16118ab565b848461199b565b604080517f5452414e534645525f415554484f52495a45525f524f4c4500000000000000008152905190819003601801902081565b6000818152606560205260408120610a629061248e565b604080516a4d494e5445525f524f4c4560a81b8152905190819003600b01902061157090610b2e6118ab565b6115ab5760405162461bcd60e51b8152600401808060200182810382526030815260200180612d9f6030913960400191505060405180910390fd5b60006115b63061121e565b1115610e6157610e61306115c93061121e565b611e84565b604080516a4d494e5445525f524f4c4560a81b8152905190819003600b01902081565b60008281526065602052604090206002015461160f90610b2e6118ab565b610bdc5760405162461bcd60e51b8152600401808060200182810382526030815260200180612eef6030913960400191505060405180910390fd5b7f158b0a9edf7a828aad02f63cd515c68ef2f50ba807396f6d12842833a159742981565b6001600160a01b03918216600090815260986020908152604080832093909416825291909152205490565b604080517f5452414e534645525f415554484f52495a45525f524f4c450000000000000000815290519081900360180190206116d5908a6113ce565b6117105760405162461bcd60e51b8152600401808060200182810382526057815260200180612f536057913960600191505060405180910390fd5b6117427f7c7c6cdb67a18743f49ec6fa9b35f50d52ed05cbed4cc592e13b44501c1a22678a8a8a8a8a8a8a8a8a612499565b505050505050505050565b604080516a5041555345525f524f4c4560a81b8152905190819003600b01902081565b6001600160a01b0391909116600090815261019460209081526040808320938352929052205460ff1690565b60006117a661232e565b905090565b6117b36118ab565b6001600160a01b0316886001600160a01b0316146118025760405162461bcd60e51b8152600401808060200182810382526021815260200180612df66021913960400191505060405180910390fd5b604080517f5452414e534645525f415554484f52495a45525f524f4c4500000000000000008152905190819003601801902061183e908a6113ce565b6118795760405162461bcd60e51b8152600401808060200182810382526057815260200180612f536057913960600191505060405180910390fd5b6117427fd099cc98ef71107a616c4f0f941f04c322d8e254fe26b3c6668db87aae413de88a8a8a8a8a8a8a8a8a612499565b3390565b6001600160a01b0383166118f45760405162461bcd60e51b81526004018080602001828103825260248152602001806130ba6024913960400191505060405180910390fd5b6001600160a01b0382166119395760405162461bcd60e51b8152600401808060200182810382526022815260200180612d4f6022913960400191505060405180910390fd5b6001600160a01b03808416600081815260986020908152604080832094871680845294825291829020859055815185815291517f8c5be1e5ebec7d5bd14f71427d1e84f3dd0314c0f7b2291e5b200ac8c7c3b9259281900390910190a3505050565b6001600160a01b0383166119e05760405162461bcd60e51b81526004018080602001828103825260258152602001806130956025913960400191505060405180910390fd5b6001600160a01b038216611a255760405162461bcd60e51b8152600401808060200182810382526023815260200180612cdb6023913960400191505060405180910390fd5b611a2d611c93565b611a7081604051806060016040528060268152602001612e17602691396001600160a01b038616600090815260976020526040902054919063ffffffff611b0116565b6001600160a01b038085166000908152609760205260408082209390935590841681522054611aa5908263ffffffff611c3916565b6001600160a01b0380841660008181526097602090815260409182902094909455805185815290519193928716927fddf252ad1be2c89b69c2b068fc378daa952ba7f163c4a11628f55a4df523b3ef92918290030190a3505050565b60008184841115611b535760405162461bcd60e51b8152602060048201818152835160248401528351909283926044909101919085019080838360008315611069578181015183820152602001611051565b505050900390565b6000828152606560205260409020611b79908263ffffffff61273216565b15610b7857611b866118ab565b6001600160a01b0316816001600160a01b0316837f2f8788117e7eff1d82e926ec794901d17c78024a50270940304540a733656f0d60405160405180910390a45050565b6000828152606560205260409020611be8908263ffffffff61274716565b15610b7857611bf56118ab565b6001600160a01b0316816001600160a01b0316837ff6391f5c32d9c69d2a47ea670b442974b53935d1edc7fd64eb21e047a839171b60405160405180910390a45050565b6000828201838110156113c7576040805162461bcd60e51b815260206004820152601b60248201527f536166654d6174683a206164646974696f6e206f766572666c6f770000000000604482015290519081900360640190fd5b611c9b610e61565b611ca3611215565b15610e615760405162461bcd60e51b81526004018080602001828103825260318152602001806131246031913960400191505060405180910390fd5b60c95460ff16611d36576040805162461bcd60e51b815260206004820152601460248201527f5061757361626c653a206e6f7420706175736564000000000000000000000000604482015290519081900360640190fd5b60c9805460ff191690557f5db9ee0a495bf2e6ff9c91a7834c1ba4fdd244a5e8aa4e537bd38aeae4b073aa611d696118ab565b604080516001600160a01b039092168252519081900360200190a1565b6001600160a01b038216611de1576040805162461bcd60e51b815260206004820152601f60248201527f45524332303a206d696e7420746f20746865207a65726f206164647265737300604482015290519081900360640190fd5b611ded6000838361275c565b609954611e00908263ffffffff611c3916565b6099556001600160a01b038216600090815260976020526040902054611e2c908263ffffffff611c3916565b6001600160a01b03831660008181526097602090815260408083209490945583518581529351929391927fddf252ad1be2c89b69c2b068fc378daa952ba7f163c4a11628f55a4df523b3ef9281900390910190a35050565b6001600160a01b038216611ec95760405162461bcd60e51b81526004018080602001828103825260218152602001806130746021913960400191505060405180910390fd5b611ed582600083610fb9565b611f1881604051806060016040528060228152602001612d2d602291396001600160a01b038516600090815260976020526040902054919063ffffffff611b0116565b6001600160a01b038316600090815260976020526040902055609954611f44908263ffffffff61276716565b6099556040805182815290516000916001600160a01b038516917fddf252ad1be2c89b69c2b068fc378daa952ba7f163c4a11628f55a4df523b3ef9181900360200190a35050565b303b1590565b600054610100900460ff1680611fab5750611fab611f8c565b80611fb9575060005460ff16155b611ff45760405162461bcd60e51b815260040180806020018281038252602e815260200180613046602e913960400191505060405180910390fd5b600054610100900460ff1615801561201f576000805460ff1961ff0019909116610100171660011790555b8015610ee5576000805461ff001916905550565b600054610100900460ff168061204c575061204c611f8c565b8061205a575060005460ff16155b6120955760405162461bcd60e51b815260040180806020018281038252602e815260200180613046602e913960400191505060405180910390fd5b600054610100900460ff161580156120c0576000805460ff1961ff0019909116610100171660011790555b82516120d390609a906020860190612c20565b5081516120e790609b906020850190612c20565b50609c805460ff191660121790558015610fb9576000805461ff0019169055505050565b600054610100900460ff16806121245750612124611f8c565b80612132575060005460ff16155b61216d5760405162461bcd60e51b815260040180806020018281038252602e815260200180613046602e913960400191505060405180910390fd5b600054610100900460ff16158015612198576000805460ff1961ff0019909116610100171660011790555b60c9805460ff191690558015610ee5576000805461ff001916905550565b600054610100900460ff16806121cf57506121cf611f8c565b806121dd575060005460ff16155b6122185760405162461bcd60e51b815260040180806020018281038252602e815260200180613046602e913960400191505060405180910390fd5b600054610100900460ff16158015612243576000805460ff1961ff0019909116610100171660011790555b61225060006113146118ab565b604080516a5041555345525f524f4c4560a81b8152905190819003600b01902061201f906113146118ab565b600054610100900460ff16806122955750612295611f8c565b806122a3575060005460ff16155b6122de5760405162461bcd60e51b815260040180806020018281038252602e815260200180613046602e913960400191505060405180910390fd5b600054610100900460ff16158015612309576000805460ff1961ff0019909116610100171660011790555b6b019d971e4fe8401e7400000061012d5561201f6123256118ab565b61012d54611d86565b60006117a66040518080612fcc60529139605201905060405180910390206123546127a9565b61235c6127b0565b6127b7565b604080517f19010000000000000000000000000000000000000000000000000000000000006020808301919091526022820194909452604280820193909352815180820390930183526062019052805191012090565b60008060006123c8878787876127fc565b915091506123d5816128ed565b5095945050505050565b60c95460ff1615612437576040805162461bcd60e51b815260206004820152601060248201527f5061757361626c653a2070617573656400000000000000000000000000000000604482015290519081900360640190fd5b60c9805460ff191660011790557f62e78cea01bee320cd4e420270b5ea74000d11b0c9f74754ebdbfc544b05a258611d696118ab565b60006113c78383612a5e565b60006113c7836001600160a01b038416612ac2565b6000610a6282612ada565b8542116124d75760405162461bcd60e51b8152600401808060200182810382526027815260200180612dcf6027913960400191505060405180910390fd5b8442106125155760405162461bcd60e51b81526004018080602001828103825260218152602001806130de6021913960400191505060405180910390fd5b6001600160a01b038916600090815261019460209081526040808320878452825291829020548251808401909352601e83527f454950333030393a20617574686f72697a6174696f6e206973207573656400009183019190915260ff16156125be5760405162461bcd60e51b8152602060048201818152835160248401528351909283926044909101919085019080838360008315611069578181015183820152602001611051565b5060408051602081018c90526001600160a01b03808c16828401528a1660608201526080810189905260a0810188905260c0810187905260e080820187905282518083039091018152610100909101909152600061261d61110461232e565b90508a6001600160a01b0316612635828787876123b7565b6001600160a01b0316146040518060400160405280601a81526020017f454950333030393a20696e76616c6964207369676e6174757265000000000000815250906126c15760405162461bcd60e51b8152602060048201818152835160248401528351909283926044909101919085019080838360008315611069578181015183820152602001611051565b506001600160a01b038b166000818152610194602090815260408083208a8452909152808220805460ff19166001179055518892917f98de503528ee59b575ef0c0a2576a82497bfc029a5685b209e9ec333479b10a591a36127248b8b8b61199b565b505050505050505050505050565b60006113c7836001600160a01b038416612ade565b60006113c7836001600160a01b038416612b28565b610fb9838383612bee565b60006113c783836040518060400160405280601e81526020017f536166654d6174683a207375627472616374696f6e206f766572666c6f770000815250611b01565b6101605490565b6101615490565b604080516020808201959095528082019390935260608301919091524660808301523060a0808401919091528151808403909101815260c09092019052805191012090565b6000807f7fffffffffffffffffffffffffffffff5d576e7357a4501ddfe92f46681b20a083111561283357506000905060036128e4565b8460ff16601b1415801561284b57508460ff16601c14155b1561285c57506000905060046128e4565b60408051600080825260208083018085528a905260ff89168385015260608301889052608083018790529251909260019260a080820193601f1981019281900390910190855afa1580156128b4573d6000803e3d6000fd5b5050604051601f1901519150506001600160a01b0381166128dd575060009150600190506128e4565b9150600090505b94509492505050565b60008160048111156128fb57fe5b141561290657610ee5565b600181600481111561291457fe5b1415612967576040805162461bcd60e51b815260206004820152601860248201527f45434453413a20696e76616c6964207369676e61747572650000000000000000604482015290519081900360640190fd5b600281600481111561297557fe5b14156129c8576040805162461bcd60e51b815260206004820152601f60248201527f45434453413a20696e76616c6964207369676e6174757265206c656e67746800604482015290519081900360640190fd5b60038160048111156129d657fe5b1415612a135760405162461bcd60e51b8152600401808060200182810382526022815260200180612e9e6022913960400191505060405180910390fd5b6004816004811115612a2157fe5b1415610ee55760405162461bcd60e51b8152600401808060200182810382526022815260200180612faa6022913960400191505060405180910390fd5b81546000908210612aa05760405162461bcd60e51b8152600401808060200182810382526022815260200180612cb96022913960400191505060405180910390fd5b826000018281548110612aaf57fe5b9060005260206000200154905092915050565b60009081526001919091016020526040902054151590565b5490565b6000612aea8383612ac2565b612b2057508154600181810184556000848152602080822090930184905584548482528286019093526040902091909155610a62565b506000610a62565b60008181526001830160205260408120548015612be45783546000198083019190810190600090879083908110612b5b57fe5b9060005260206000200154905080876000018481548110612b7857fe5b600091825260208083209091019290925582815260018981019092526040902090840190558654879080612ba857fe5b60019003818190600052602060002001600090559055866001016000878152602001908152602001600020600090556001945050505050610a62565b6000915050610a62565b61012d54612c0a82612bfe610a68565b9063ffffffff611c3916565b1115612c1557600080fd5b610fb9838383610fb9565b828054600181600116156101000203166002900490600052602060002090601f016020900481019282601f10612c6157805160ff1916838001178555612c8e565b82800160010185558215612c8e579182015b82811115612c8e578251825591602001919060010190612c73565b50612c9a929150612c9e565b5090565b610a4791905b80821115612c9a5760008155600101612ca456fe456e756d657261626c655365743a20696e646578206f7574206f6620626f756e647345524332303a207472616e7366657220746f20746865207a65726f2061646472657373416363657373436f6e74726f6c3a2073656e646572206d75737420626520616e2061646d696e20746f206772616e7445524332303a206275726e20616d6f756e7420657863656564732062616c616e636545524332303a20617070726f766520746f20746865207a65726f206164647265737345524332303a20496e73756666696369656e742062616c616e636520666f72206261746368207472616e73666572505245546f6b656e56333a204f6e6c79204d696e74657220726f6c652063616e2072756e2074686973206d6574686f64454950333030393a20617574686f72697a6174696f6e206973206e6f74207965742076616c6964454950333030393a2063616c6c6572206d7573742062652074686520706179656545524332303a207472616e7366657220616d6f756e7420657863656564732062616c616e63654d616e61676564456e68616e63656445524332303a206d75737420686176652070617573657220726f6c6520746f20756e7061757365505245546f6b656e56333a20436f6e747261637420697320616c726561647920696e697469616c697a656445434453413a20696e76616c6964207369676e6174757265202773272076616c7565505245546f6b656e56333a204f6e6c792041646d696e20726f6c652063616e2072756e2074686973206d6574686f64416363657373436f6e74726f6c3a2073656e646572206d75737420626520616e2061646d696e20746f207265766f6b654d616e61676564456e68616e63656445524332303a206d75737420686176652070617573657220726f6c6520746f2070617573655472616e73666572417574686f72697a61626c6545524332303a2066726f6d2061646472657373206973206e6f7420617574686f72697a656420666f72207472616e7366657257697468417574686f72697a6174696f6e45434453413a20696e76616c6964207369676e6174757265202776272076616c7565454950373132446f6d61696e28737472696e67206e616d652c737472696e672076657273696f6e2c75696e7432353620636861696e49642c6164647265737320766572696679696e67436f6e74726163742945524332303a207472616e7366657220616d6f756e74206578636565647320616c6c6f77616e6365436f6e747261637420696e7374616e63652068617320616c7265616479206265656e20696e697469616c697a656445524332303a206275726e2066726f6d20746865207a65726f206164647265737345524332303a207472616e736665722066726f6d20746865207a65726f206164647265737345524332303a20617070726f76652066726f6d20746865207a65726f2061646472657373454950333030393a20617574686f72697a6174696f6e206973206578706972656445524332303a2064656372656173656420616c6c6f77616e63652062656c6f77207a65726f4d616e61676564456e68616e63656445524332303a20746f6b656e207472616e73666572207768696c6520706175736564416363657373436f6e74726f6c3a2063616e206f6e6c792072656e6f756e636520726f6c657320666f722073656c66a2646970667358221220bad2c516d2b9bc661bdb20f72660967b9ffc5aa513a9cf0ea4b927df7e16680764736f6c63430006020033",
  "source": "pragma solidity 0.6.2;\n\nimport \"./PRETokenV2.sol\";\nimport \"./TransferAuthorizableERC20.sol\";\n\n/**\n * @dev Presearch ERC20 Token\n *\n * Supply capped at 1B.\n */\ncontract PRETokenV3 is PRETokenV2 {\n    bytes32 public constant MINTER_ROLE = keccak256(\"MINTER_ROLE\");\n    \n    bool private _initializedV3;\n\n    function initialize() public override {\n      require (!_initializedV3, \"PRETokenV3: Contract is already initialized\");\n      require(hasRole(DEFAULT_ADMIN_ROLE, _msgSender()), \"PRETokenV3: Only Admin role can run this method\");\n      _setupRole(MINTER_ROLE, _msgSender());\n      _maxSupply = 1000000000e18;\n      _initializedV3 = true;   \n    }\n\n    /**\n     * @dev Mints new tokens.\n     *\n     * Requirements:\n     *\n     * - the caller must have the `MINTER_ROLE`.\n     * - the `totalSupply` + `amount` must not exceed max supply of 1B.\n     */\n    function mint(address to, uint256 amount) public virtual{\n      require(hasRole(MINTER_ROLE, _msgSender()), \"PRETokenV3: Only Minter role can run this method\");\n      _mint(to, amount);\n    }\n\n    /**\n     * @dev Burns `amount` tokens from the caller's address\n     *\n     * Requirements:\n     *\n     * - `amount` cannot be greater than the caller's token balance.\n     */\n    function burn(uint256 amount) public virtual {\n      _burn(_msgSender(), amount);\n    }\n\n    function recover() public virtual{\n      require(hasRole(MINTER_ROLE, _msgSender()), \"PRETokenV3: Only Minter role can run this method\");\n      // Burn lost tokens sent to the token contract so they are not locked there forever\n      // This is a safety measure which enables tokens to be re-minted later\n      if(balanceOf(address(this)) > 0) {\n        _burn(address(this), balanceOf(address(this)));\n      }\n    }\n\n}\n",
  "sourcePath": "/Users/treygrainger/Desktop/PRE-Token-multisig/contracts/PRETokenV3.sol",
  "compiler": {
    "name": "solc",
    "version": "0.6.2+commit.bacdbe57.Emscripten.clang"
  },
  "schemaVersion": "3.2.5",
  "updatedAt": "2023-09-01T10:00:01.711Z",
  "networkType": "ethereum",
  "devdoc": {
    "details": "Presearch ERC20 Token * Supply capped at 1B.",
    "methods": {
      "allowance(address,address)": {
        "details": "See {IERC20-allowance}."
      },
      "approve(address,uint256)": {
        "details": "See {IERC20-approve}.     * Requirements:     * - `spender` cannot be the zero address."
      },
      "authorizationState(address,bytes32)": {
        "details": "Nonces are randomly generated 32-byte data unique to the authorizer's address",
        "params": {
          "authorizer": "Authorizer's address",
          "nonce": "Nonce of the authorization"
        },
        "returns": {
          "_0": "True if the nonce is used"
        }
      },
      "balanceOf(address)": {
        "details": "See {IERC20-balanceOf}."
      },
      "burn(uint256)": {
        "details": "Burns `amount` tokens from the caller's address     * Requirements:     * - `amount` cannot be greater than the caller's token balance."
      },
      "cancelAuthorization(address,bytes32,uint8,bytes32,bytes32)": {
        "params": {
          "authorizer": "Authorizer's address",
          "nonce": "Nonce of the authorization",
          "r": "r of the signature",
          "s": "s of the signature",
          "v": "v of the signature"
        }
      },
      "decimals()": {
        "details": "Returns the number of decimals used to get its user representation. For example, if `decimals` equals `2`, a balance of `505` tokens should be displayed to a user as `5,05` (`505 / 10 ** 2`).     * Tokens usually opt for a value of 18, imitating the relationship between Ether and Wei. This is the value {ERC20} uses, unless {_setupDecimals} is called.     * NOTE: This information is only used for _display_ purposes: it in no way affects any of the arithmetic of the contract, including {IERC20-balanceOf} and {IERC20-transfer}."
      },
      "decreaseAllowance(address,uint256)": {
        "details": "Atomically decreases the allowance granted to `spender` by the caller.     * This is an alternative to {approve} that can be used as a mitigation for problems described in {IERC20-approve}.     * Emits an {Approval} event indicating the updated allowance.     * Requirements:     * - `spender` cannot be the zero address. - `spender` must have allowance for the caller of at least `subtractedValue`."
      },
      "getRoleAdmin(bytes32)": {
        "details": "Returns the admin role that controls `role`. See {grantRole} and {revokeRole}.     * To change a role's admin, use {_setRoleAdmin}."
      },
      "getRoleMember(bytes32,uint256)": {
        "details": "Returns one of the accounts that have `role`. `index` must be a value between 0 and {getRoleMemberCount}, non-inclusive.     * Role bearers are not sorted in any particular way, and their ordering may change at any point.     * WARNING: When using {getRoleMember} and {getRoleMemberCount}, make sure you perform all queries on the same block. See the following https://forum.openzeppelin.com/t/iterating-over-elements-on-enumerableset-in-openzeppelin-contracts/2296[forum post] for more information."
      },
      "getRoleMemberCount(bytes32)": {
        "details": "Returns the number of accounts that have `role`. Can be used together with {getRoleMember} to enumerate all bearers of a role."
      },
      "grantRole(bytes32,address)": {
        "details": "Grants `role` to `account`.     * If `account` had not been already granted `role`, emits a {RoleGranted} event.     * Requirements:     * - the caller must have ``role``'s admin role."
      },
      "hasRole(bytes32,address)": {
        "details": "Returns `true` if `account` has been granted `role`."
      },
      "increaseAllowance(address,uint256)": {
        "details": "Atomically increases the allowance granted to `spender` by the caller.     * This is an alternative to {approve} that can be used as a mitigation for problems described in {IERC20-approve}.     * Emits an {Approval} event indicating the updated allowance.     * Requirements:     * - `spender` cannot be the zero address."
      },
      "mint(address,uint256)": {
        "details": "Mints new tokens.     * Requirements:     * - the caller must have the `MINTER_ROLE`. - the `totalSupply` + `amount` must not exceed max supply of 1B."
      },
      "name()": {
        "details": "Returns the name of the token."
      },
      "pause()": {
        "details": "Pauses all token transfers.     * See {ERC20Pausable} and {Pausable-_pause}.     * Requirements:     * - the caller must have the `PAUSER_ROLE`."
      },
      "paused()": {
        "details": "Returns true if the contract is paused, and false otherwise."
      },
      "receiveWithAuthorization(address,address,uint256,uint256,uint256,bytes32,uint8,bytes32,bytes32)": {
        "details": "This has an additional check to ensure that the payee's address matches the caller of this function to prevent front-running attacks. (See security considerations)",
        "params": {
          "from": "Payer's address (Authorizer)",
          "nonce": "Unique nonce",
          "r": "r of the signature",
          "s": "s of the signature",
          "to": "Payee's address",
          "v": "v of the signature",
          "validAfter": "The time after which this is valid (unix time)",
          "validBefore": "The time before which this is valid (unix time)",
          "value": "Amount to be transferred"
        }
      },
      "renounceRole(bytes32,address)": {
        "details": "Revokes `role` from the calling account.     * Roles are often managed via {grantRole} and {revokeRole}: this function's purpose is to provide a mechanism for accounts to lose their privileges if they are compromised (such as when a trusted device is misplaced).     * If the calling account had been granted `role`, emits a {RoleRevoked} event.     * Requirements:     * - the caller must be `account`."
      },
      "revokeRole(bytes32,address)": {
        "details": "Revokes `role` from `account`.     * If `account` had been granted `role`, emits a {RoleRevoked} event.     * Requirements:     * - the caller must have ``role``'s admin role."
      },
      "symbol()": {
        "details": "Returns the symbol of the token, usually a shorter version of the name."
      },
      "totalSupply()": {
        "details": "See {IERC20-totalSupply}."
      },
      "transfer(address,uint256)": {
        "details": "See {IERC20-transfer}.     * Requirements:     * - `recipient` cannot be the zero address. - the caller must have a balance of at least `amount`."
      },
      "transferBatch(address[],uint256[])": {
        "details": "Send multiple transfers as a batch within a single transaction This is much more efficient than sending independent transactions.  This method should between 28% of gas (2 transfers)  and 50%-60% of gas (10+ transfers)     * Calling conditions:     * Emits an {Transfer} event for each individual successful transfer.     * Requirements:     * - `recipients[]` length must equal  `amounts[]` length. -  The amount to send `recipients[i]` must be at `amounts[i]` - `recipient` cannot be the zero address. - `balance` of the calling account must be >= the sum of values in `amounts` going to other accounts"
      },
      "transferFrom(address,address,uint256)": {
        "details": "See {IERC20-transferFrom}.     * Emits an {Approval} event indicating the updated allowance. This is not required by the EIP. See the note at the beginning of {ERC20};     * Requirements: - `sender` and `recipient` cannot be the zero address. - `sender` must have a balance of at least `amount`. - the caller must have allowance for ``sender``'s tokens of at least `amount`."
      },
      "transferWithAuthorization(address,address,uint256,uint256,uint256,bytes32,uint8,bytes32,bytes32)": {
        "params": {
          "from": "Payer's address (Authorizer)",
          "nonce": "Unique nonce",
          "r": "r of the signature",
          "s": "s of the signature",
          "to": "Payee's address",
          "v": "v of the signature",
          "validAfter": "The time after which this is valid (unix time)",
          "validBefore": "The time before which this is valid (unix time)",
          "value": "Amount to be transferred"
        }
      },
      "unpause()": {
        "details": "Unpauses all token transfers.     * See {ERC20Pausable} and {Pausable-_unpause}.     * Requirements:     * - the caller must have the `PAUSER_ROLE`."
      }
    }
  },
  "userdoc": {
    "methods": {
      "authorizationState(address,bytes32)": {
        "notice": "Returns the state of an authorization"
      },
      "cancelAuthorization(address,bytes32,uint8,bytes32,bytes32)": {
        "notice": "Attempt to cancel an authorization"
      },
      "receiveWithAuthorization(address,address,uint256,uint256,uint256,bytes32,uint8,bytes32,bytes32)": {
        "notice": "Receive a transfer with a signed authorization from the payer"
      },
      "transferWithAuthorization(address,address,uint256,uint256,uint256,bytes32,uint8,bytes32,bytes32)": {
        "notice": "Execute a transfer with a signed authorization"
      }
    }
  }
}